:0300000002004CAF
:200008000000E2FBEAF2802C0000E0FBEAF08024E6B50202EBF62200E2B50202EBF22200DE
:20002800E0B50202EBF02230F6E0A88220F5D3EAC6F582228B822230F6E6A88220F5D980EE
:01004800CFE8
:0300A5000200490D
:030049000200FFB3
:2000A800AE82AF83E59830E1FB5398FD8E998E828F8322758920759840758DFA4388404345
:2000C800980222AE82AF837C007D007A007B00C3EA9EEB64808FF063F08095F05008000AB9
:2000E800BA00EC0B80E90CBC00010DC3EC94E2ED6480948140D522758920759840758DFD5C
:20010800438840439802C29075900075A00075C000745BC0E07409C0E07480C0E01201B467
:200128001581158115817469C0E07409C0E07480C0E01201B4158115811581D2909001F457
:200148001200CBC2909001F41200CB7590019001F41200CB7590009001F41200CB75A00121
:200168009001F41200CB75A0009001F41200CB75C0019001F41200CB75C0009001F412003A
:04018800CB0201198C
:19095B005354433132433541363053320A004261756420393630300A0013
:06007B00E478FFF6D8FD59
:200059007900E94400601B7A0090097F780175A000E493F2A308B8000205A0D9F4DAF275C5
:02007900A0FFE6
:200081007800E84400600A790175A000E4F309D8FC7800E84400600C7900900001E4F0A37D
:0400A100D8FCD9FAB4
:20018C00C0348581347E008E831200A8D0342285821985831A85F01BE4F516F517F5188557
:2001AC00081C90018C020272C034E581F53424FBF51CE4F516F517F518E53424FBF88619F2
:0F01CC0008861A08861B90018C120272D034220A
:2001DB00AF82C00CC00DC00E1201E88007C00AC00B8F82221581158115810514E4B5140298
:2001FB00051522AF8274302FFF24C6500B74072FFFE50960034307208F820201DBE582FFA7
:20021B00C4540FF582C0071201FED007740F5FF5820201FE858235AB0FAC10AD11AE12AA42
:20023B0013753720EA2AF536EE2354014536FAEB2BFBEC33FCED33FDEE33FEC3EA9535408B
:20025B0008EAC39535FA430301D537D88B0F8C108D118E128A132285820A85830B85160CE1
:20027B0085170D85180EE4F514F515AD19AE1AAF1B8D828E838FF012093BFC74012DF5191F
:20029B00E43EF51A8F1BECFF70030208FFBF250280030208F7E4F51DF51EF51FF520F5214F
:2002BB00F522F523F524F526F527F5287529FF752AFFAC19AD1AAE1B8C828D838EF0120940
:2002DB003BF52EA3AC82AD838C198D1A8E1B7425B52E08852E821201DB809074D0252E4021
:2002FB0003020397E52E24C6500302039774FFB5294BB52A48C004C005C0068527358528B8
:20031B003690000AC006C005C00412091EAA82AB83D004D005D006AE2E7D00EE2AFAED3BFE
:20033B00FBEA24D0F527EB34FFF528E5274528D006D005D0047081751E010202D3C004C09A
:20035B0005C006852935852A3690000AC006C005C00412091EAA82AB83D004D005D006AD47
:20037B002E7E00ED2AFAEE3BFBEA24D0F529EB34FFF52AD006D005D0040202D3742EB52E6D
:20039B001574FFB52905B52A0280030202D3E4F529F52A0202D3749F252E500EE52E248524
:2003BB004008532EDF75090180037509007420B52E03020464742BB52E0302045E742DB5D7
:2003DB002E0280797442B52E0302046A7443B52E030204767444B52E030206087446B52E69
:2003FB000302061F7448B52E030202D37449B52E03020608744AB52E030202D3744CB52E6E
:20041B00028052744FB52E030206107450B52E0302059D7453B52E0280627454B52E0302A0
:20043B0002D37455B52E030206157458B52E0302061A745AB52E030202D3020624751D01E2
:20045B000202D3751F010202D37520010202D37522010202D37523010202D3E522600AE59C
:20047B001C14F9891C8706800BE51C24FEFD8D1C8D0187068E821201DB020630E51C24FD3F
:20049B00FE8E1C8E01870409870509870619198C0F8D108E118C828D838EF0120906858287
:2004BB002F85833074FFB52909B52A06852F2985302AE51D703DC3E52F9527E5309528505B
:2004DB0032E527C3952FF527E5289530F528AC27AB288C028B061CBCFF011BEA4E6010755C
:2004FB008220C004C0031201DBD003D00480E38C278B28AD29AE2AAA0FAB10AC118A828BE4
:20051B00838CF012093BFC6033C3E49D74808EF063F08095F050251DBDFF011E8C82C0068D
:20053B00C0051201DBD005D006AA0FAB10AC110ABA00010B8A0F8B108C1180BBE51D7003C0
:20055B00020630C3E52F9527E53095284003020630E527C3952FF527E5289530F528AE27F5
:20057B00AD288E038D041EBEFF011DEB4C700302062C758220C006C0051201DBD005D00657
:20059B0080E0E51C24FDFC8C1C8C01870209870309870419198A0F8B108C11AC11BC8000E1
:2005BB0040047B438014BC600040047B50800BBC400040047B4980027B588B82C003120198
:2005DB00DB75823A1201DB7582301201DB7582781201DBD003BB4902800BBB500280068518
:2005FB001082120218850F82120218802875210175260A8020752608801B75260A8016756E
:20061B0026108011752401800C852E821201DB80048E278D28E524605BE51C24FCFE8E1C34
:20063B008E0187030987040987050987061919198B0F8C108D118E12750F747510097511FC
:20065B0080850F3185103285113374012531FAE43532FBAE338A0F8B108E118531828532FC
:20067B00838533F012093BFD70030202868D821201DB80CDE5267003020286E5226032E514
:20069B001C14F9891C87067D007C007B008E0F8D108C118B12E5217072AB0FAC10AD11AE32
:2006BB00127C007D007E008B0F8C108D118E12805AE5236021E51C24FCFE8E1C8E018703DD
:2006DB000987040987050987061919198B0F8C108D118E128035E51C24FEFE8E1C8E0187EB
:2006FB000509870619EE3395E0FCFB8D0F8E108C118B12E5217014AB0FAC10AD11AE127D2F
:20071B00007E008B0F8C108D118E12E521602DAB0FAC10AD11E51230E71FAB0FAC10AD11A4
:20073B00AE12C3E49BFBE49CFCE49DFDE49EFE8B0F8C108D118E1280037521007525017986
:20075B003DE4F531F532751300852682C00112022FD001E5257013E513C454F0FCE513C441
:20077B00540F4204E74CF7198002A71374012531F531E43532F532E525B40100E433F525E3
:20079B00AA0FAB10AC11AE12EA4B4C4E70B8892D85312B85322CE52745287005752701F55C
:2007BB0028E51E702FE51D702BAA27AB28AE2B0E8E057E00C3ED9AEE9B5015758220C00309
:2007DB00C0021201DBD002D0031ABAFF011B80DD8A278B28E521601175822D1201DB152734
:2007FB0074FFB527021528802EE52B452C6028E51F601175822B1201DB152774FFB5270287
:20081B0015288013E520600F7582201201DB152774FFB527021528E51D702FAE27AD288ED1
:20083B00038D041EBEFF011DC3E52B9BE52C9C503AE51E60047C3080027C208C82C006C0A6
:20085B00051201DBD005D00680D5C3E52B9527E52C9528500FE527C3952BF527E528952C55
:20087B00F528800BE4F527F52880048E278D28A92DAD2BAE2C8D038E041DBDFF011EEB4CD1
:20089B00602FE525B40100E433F525700909E7C4540FF51380078704740F5CF51385138213
:2008BB00C006C005C0011201FED001D005D00680C4E51D7003020286AD27AE288D038E0435
:2008DB001DBDFF011EEB4C7003020286758220C006C0051201DBD005D00680E08F82120112
:0B08FB00DB0202868514828515832233
:0B0974003C4E4F20464C4F41543E00CB
:18090600AA82AB8312093B6003A380F8C3E5829AF582E5839BF58322D3
:1D091E00E5828535F0A4C582C0F08536F0A4D0F025F0C5838535F0A42583F5832214
:0D004C0075813D120957E5826003020049ED
:1C093B0020F71430F6148883A88220F507E6A88375830022E280F7E49322E022CB
:040957007582002283
:00000001FF
